:0E0911008FA0C290C291D292120902C292220D
:0508EF001209027F4523
:0E08F4008FA0D290C291D292120902C292221B
:0E090200E4FFFE0FBF00010EBE4EF8BF20F551
:0109100022C4
:10080000E4F5A07F381209111209027F01120911C3
:100810001209027F0E1209111209027F0C1209112E
:100820001209027F801209111209027F571208F47F
:100830001208EF1209027F4C1208F41209027F43DA
:100840001208F41209027F4F1208F41209027F4DB8
:100850001208F41208EF1209027F201208F412099C
:10086000027F541208F41209027F4F1208F4120991
:10087000027FC01209111209027F411208F4120905
:10088000027F511208F41209027F571208F412096C
:10089000027F411208F41209027F511208F4120972
:1008A000027F411208F41209027F4D1208F4120966
:1008B000027F201208F41209027F521208F4120873
:1008C000EF1209027F431208F41209027F4F120847
:1008D000F41209027F521208F41209027F4412082E
:0F08E000F41209027F531208F4120902020803EE
:0300000002091FD3
:0C091F00787FE4F6D8FD7581070208001F
:00000001FF
