:040868007F327E005D
:10086C00EF4E60147D737C00ED1D70011CED4C701F
:08087C00F7EF1F70EB1E80E88E
:010884002251
:10080000E4F5A0D2A0D2A7120868C2A0C2A712081D
:1008100068D2A1D2A6120868C2A1C2A6120868D2E4
:10082000A2D2A5120868C2A2C2A5120868D2A3D299
:10083000A4120868C2A3C2A4120868D2A5D2A21248
:100840000868C2A5C2A2120868D2A6D2A11208687E
:10085000C2A6C2A1120868D2A7D2A0120868C2A775
:08086000C2A01208680208039F
:030000000208856E
:0C088500787FE4F6D8FD758107020800BA
:00000001FF
